:020000040000FA
:060000000A128A11E82F2C
:100F0A000A34FC346034DA34F2346634B634BE342B
:100F1A00E034FE34F6347E088A007F0882000A1222
:100F2A008A1190270A128A118000840A04087D0611
:100F3A0003190034FF0A0319FE0A942F2030840093
:100F4A002B30F0000408F1000A30F2007008840027
:100F5A0083130008F300F00A710884007308800004
:100F6A00F10AF20BAB2F0A30F00070088312031358
:100F7A00AA008316031386018312031386018312C0
:100F8A0003132A08203E84008313000886000130D8
:100F9A00F0007008AA070A302A06031DD52FD62F9B
:100FAA00C42FAA010630F2001330F100AD30F00070
:100FBA00F00BDD2FF10BDD2FF20BDD2FE42FC42F09
:100FCA000A128A11002883133530FD000730FE000B
:100FDA008630FF002B3084000A128A1194270A12E5
:100FEA008A110A128A1185270A128A11F4008301CA
:060FFA000A128A11A32F68
:02400E00793FF8
:00000001FF
